{
  "_format": "hh-sol-artifact-1",
  "contractName": "Hero",
  "sourceName": "contracts/hero.sol",
  "abi": [
    {
      "inputs": [
        {
          "internalType": "enum Hero.Class",
          "name": "class",
          "type": "uint8"
        }
      ],
      "name": "createHero",
      "outputs": [],
      "stateMutability": "payable",
      "type": "function"
    },
    {
      "inputs": [],
      "name": "generateRandom",
      "outputs": [
        {
          "internalType": "uint256",
          "name": "",
          "type": "uint256"
        }
      ],
      "stateMutability": "nonpayable",
      "type": "function"
    },
    {
      "inputs": [
        {
          "internalType": "uint256",
          "name": "hero",
          "type": "uint256"
        }
      ],
      "name": "getDexterity",
      "outputs": [
        {
          "internalType": "uint32",
          "name": "",
          "type": "uint32"
        }
      ],
      "stateMutability": "pure",
      "type": "function"
    },
    {
      "inputs": [
        {
          "internalType": "uint256",
          "name": "hero",
          "type": "uint256"
        }
      ],
      "name": "getHealth",
      "outputs": [
        {
          "internalType": "uint32",
          "name": "",
          "type": "uint32"
        }
      ],
      "stateMutability": "pure",
      "type": "function"
    },
    {
      "inputs": [],
      "name": "getHeroes",
      "outputs": [
        {
          "internalType": "uint256[]",
          "name": "",
          "type": "uint256[]"
        }
      ],
      "stateMutability": "view",
      "type": "function"
    },
    {
      "inputs": [
        {
          "internalType": "uint256",
          "name": "hero",
          "type": "uint256"
        }
      ],
      "name": "getIhtellect",
      "outputs": [
        {
          "internalType": "uint32",
          "name": "",
          "type": "uint32"
        }
      ],
      "stateMutability": "pure",
      "type": "function"
    },
    {
      "inputs": [
        {
          "internalType": "uint256",
          "name": "hero",
          "type": "uint256"
        }
      ],
      "name": "getMagic",
      "outputs": [
        {
          "internalType": "uint32",
          "name": "",
          "type": "uint32"
        }
      ],
      "stateMutability": "pure",
      "type": "function"
    },
    {
      "inputs": [
        {
          "internalType": "uint256",
          "name": "hero",
          "type": "uint256"
        }
      ],
      "name": "getStrength",
      "outputs": [
        {
          "internalType": "uint32",
          "name": "",
          "type": "uint32"
        }
      ],
      "stateMutability": "pure",
      "type": "function"
    }
  ],
  "bytecode": "0x608060405234801561001057600080fd5b506106a5806100206000396000f3fe60806040526004361061007b5760003560e01c80639a8d28821161004e5780639a8d288214610186578063c26aec3e146101f2578063e15f225514610247578063e53fbda61461029c5761007b565b806302e4af01146100805780633fc70f2c146100ab5780635bc0a623146101005780635e7e236d14610155575b600080fd5b34801561008c57600080fd5b506100956102f1565b6040518082815260200191505060405180910390f35b3480156100b757600080fd5b506100e4600480360360208110156100ce57600080fd5b810190808035906020019092919050505061032a565b604051808263ffffffff16815260200191505060405180910390f35b34801561010c57600080fd5b506101396004803603602081101561012357600080fd5b810190808035906020019092919050505061033b565b604051808263ffffffff16815260200191505060405180910390f35b6101846004803603602081101561016b57600080fd5b81019080803560ff16906020019092919050505061034c565b005b34801561019257600080fd5b5061019b6105a8565b6040518080602001828103825283818151815260200191508051906020019060200280838360005b838110156101de5780820151818401526020810190506101c3565b505050509050019250505060405180910390f35b3480156101fe57600080fd5b5061022b6004803603602081101561021557600080fd5b810190808035906020019092919050505061063c565b604051808263ffffffff16815260200191505060405180910390f35b34801561025357600080fd5b506102806004803603602081101561026a57600080fd5b810190808035906020019092919050505061064d565b604051808263ffffffff16815260200191505060405180910390f35b3480156102a857600080fd5b506102d5600480360360208110156102bf57600080fd5b810190808035906020019092919050505061065e565b604051808263ffffffff16815260200191505060405180910390f35b6000444260405160200180838152602001828152602001925050506040516020818303038152906040528051906020012060001c905090565b6000601f600783901c169050919050565b6000601f601683901c169050919050565b66b1a2bc2ec500003410156103c9576040517f08c379a00000000000000000000000000000000000000000000000000000000081526004018080602001828103825260188152602001807f53656e64206174206c6561737420302e3035206574686572000000000000000081525060200191505060405180910390fd5b6060600567ffffffffffffffff811180156103e357600080fd5b506040519080825280602002602001820160405280156104125781602001602082028036833780820191505090505b50905060028160008151811061042457fe5b60200260200101818152505060078160018151811061043f57fe5b602002602001018181525050600c8160028151811061045a57fe5b60200260200101818152505060118160038151811061047557fe5b60200260200101818152505060168160048151811061049057fe5b60200260200101818152505060006005905060008360028111156104b057fe5b90505b6000826104be6102f1565b816104c557fe5b0690506000600184600d016104d86102f1565b816104df57fe5b060190508482815181106104ef57fe5b602002602001015181901b8317925083806001900394505084848151811061051357fe5b602002602001015185838151811061052757fe5b6020026020010181815250505050600082116104b3576000803373ffffffffffffffffffffffffffffffffffffffff1673ffffffffffffffffffffffffffffffffffffffff16815260200190815260200160002081908060018154018082558091505060019003906000526020600020016000909190919091505550505050565b60606000803373ffffffffffffffffffffffffffffffffffffffff1673ffffffffffffffffffffffffffffffffffffffff16815260200190815260200160002080548060200260200160405190810160405280929190818152602001828054801561063257602002820191906000526020600020905b81548152602001906001019080831161061e575b5050505050905090565b6000601f601183901c169050919050565b6000601f600c83901c169050919050565b6000601f600283901c16905091905056fea2646970667358221220777a2b6dbce4cb4ae38d36477fd1196386d236cd6421e49e275a279b461d59df64736f6c63430007030033",
  "linkReferences": {},
  "deployedLinkReferences": {}
}