{
  "_format": "hh-sol-artifact-1",
  "contractName": "Counter",
  "sourceName": "contracts/counter.sol",
  "abi": [
    {
      "anonymous": false,
      "inputs": [
        {
          "indexed": false,
          "internalType": "uint32",
          "name": "counter",
          "type": "uint32"
        }
      ],
      "name": "counterInc",
      "type": "event"
    },
    {
      "inputs": [],
      "name": "count",
      "outputs": [],
      "stateMutability": "nonpayable",
      "type": "function"
    },
    {
      "inputs": [],
      "name": "getCounter",
      "outputs": [
        {
          "internalType": "uint32",
          "name": "",
          "type": "uint32"
        }
      ],
      "stateMutability": "view",
      "type": "function"
    }
  ],
  "bytecode": "0x608060405234801561001057600080fd5b506102c6806100206000396000f3fe608060405234801561001057600080fd5b50600436106100365760003560e01c806306661abd1461003b5780638ada066e14610045575b600080fd5b610043610069565b005b61004d610147565b604051808263ffffffff16815260200191505060405180910390f35b60008081819054906101000a900463ffffffff168092919060010191906101000a81548163ffffffff021916908363ffffffff160217905550506100f86040518060400160405280600d81526020017f436f756e74206973206e6f77200000000000000000000000000000000000000081525060008054906101000a900463ffffffff1663ffffffff16610160565b7f150233c53c8e1abafe4d786fb2d4e324169bd41e2c09a5461900dc8ff3cae22a60008054906101000a900463ffffffff16604051808263ffffffff16815260200191505060405180910390a1565b60008060009054906101000a900463ffffffff16905090565b61026382826040516024018080602001838152602001828103825284818151815260200191508051906020019080838360005b838110156101ae578082015181840152602081019050610193565b50505050905090810190601f1680156101db5780820380516001836020036101000a031916815260200191505b5093505050506040516020818303038152906040527f9710a9d0000000000000000000000000000000000000000000000000000000007bffffffffffffffffffffffffffffffffffffffffffffffffffffffff19166020820180517bffffffffffffffffffffffffffffffffffffffffffffffffffffffff8381831617835250505050610267565b5050565b60008151905060006a636f6e736f6c652e6c6f679050602083016000808483855afa505050505056fea2646970667358221220a61029154a54cc920508b8e8a4022adf30b3713680d78f18a6eb49b5403833d464736f6c63430007030033",
  "linkReferences": {},
  "deployedLinkReferences": {}
}