{
  "_format": "hh-sol-artifact-1",
  "contractName": "TestHero",
  "sourceName": "contracts/Testhero.sol",
  "abi": [
    {
      "inputs": [
        {
          "internalType": "enum Hero.Class",
          "name": "class",
          "type": "uint8"
        }
      ],
      "name": "createHero",
      "outputs": [],
      "stateMutability": "payable",
      "type": "function"
    },
    {
      "inputs": [],
      "name": "generateRandom",
      "outputs": [
        {
          "internalType": "uint256",
          "name": "",
          "type": "uint256"
        }
      ],
      "stateMutability": "view",
      "type": "function"
    },
    {
      "inputs": [
        {
          "internalType": "uint256",
          "name": "hero",
          "type": "uint256"
        }
      ],
      "name": "getDexterity",
      "outputs": [
        {
          "internalType": "uint32",
          "name": "",
          "type": "uint32"
        }
      ],
      "stateMutability": "pure",
      "type": "function"
    },
    {
      "inputs": [
        {
          "internalType": "uint256",
          "name": "hero",
          "type": "uint256"
        }
      ],
      "name": "getHealth",
      "outputs": [
        {
          "internalType": "uint32",
          "name": "",
          "type": "uint32"
        }
      ],
      "stateMutability": "pure",
      "type": "function"
    },
    {
      "inputs": [],
      "name": "getHeroes",
      "outputs": [
        {
          "internalType": "uint256[]",
          "name": "",
          "type": "uint256[]"
        }
      ],
      "stateMutability": "view",
      "type": "function"
    },
    {
      "inputs": [
        {
          "internalType": "uint256",
          "name": "hero",
          "type": "uint256"
        }
      ],
      "name": "getIhtellect",
      "outputs": [
        {
          "internalType": "uint32",
          "name": "",
          "type": "uint32"
        }
      ],
      "stateMutability": "pure",
      "type": "function"
    },
    {
      "inputs": [
        {
          "internalType": "uint256",
          "name": "hero",
          "type": "uint256"
        }
      ],
      "name": "getMagic",
      "outputs": [
        {
          "internalType": "uint32",
          "name": "",
          "type": "uint32"
        }
      ],
      "stateMutability": "pure",
      "type": "function"
    },
    {
      "inputs": [
        {
          "internalType": "uint256",
          "name": "hero",
          "type": "uint256"
        }
      ],
      "name": "getStrength",
      "outputs": [
        {
          "internalType": "uint32",
          "name": "",
          "type": "uint32"
        }
      ],
      "stateMutability": "pure",
      "type": "function"
    },
    {
      "inputs": [
        {
          "internalType": "uint256",
          "name": "num",
          "type": "uint256"
        }
      ],
      "name": "setRandom",
      "outputs": [],
      "stateMutability": "nonpayable",
      "type": "function"
    }
  ],
  "bytecode": "0x608060405234801561001057600080fd5b506106c6806100206000396000f3fe6080604052600436106100865760003560e01c8063729e7cf611610059578063729e7cf6146101915780639a8d2882146101cc578063c26aec3e14610238578063e15f22551461028d578063e53fbda6146102e257610086565b806302e4af011461008b5780633fc70f2c146100b65780635bc0a6231461010b5780635e7e236d14610160575b600080fd5b34801561009757600080fd5b506100a0610337565b6040518082815260200191505060405180910390f35b3480156100c257600080fd5b506100ef600480360360208110156100d957600080fd5b8101908080359060200190929190505050610341565b604051808263ffffffff16815260200191505060405180910390f35b34801561011757600080fd5b506101446004803603602081101561012e57600080fd5b8101908080359060200190929190505050610352565b604051808263ffffffff16815260200191505060405180910390f35b61018f6004803603602081101561017657600080fd5b81019080803560ff169060200190929190505050610363565b005b34801561019d57600080fd5b506101ca600480360360208110156101b457600080fd5b81019080803590602001909291905050506105bf565b005b3480156101d857600080fd5b506101e16105c9565b6040518080602001828103825283818151815260200191508051906020019060200280838360005b83811015610224578082015181840152602081019050610209565b505050509050019250505060405180910390f35b34801561024457600080fd5b506102716004803603602081101561025b57600080fd5b810190808035906020019092919050505061065d565b604051808263ffffffff16815260200191505060405180910390f35b34801561029957600080fd5b506102c6600480360360208110156102b057600080fd5b810190808035906020019092919050505061066e565b604051808263ffffffff16815260200191505060405180910390f35b3480156102ee57600080fd5b5061031b6004803603602081101561030557600080fd5b810190808035906020019092919050505061067f565b604051808263ffffffff16815260200191505060405180910390f35b6000600154905090565b6000601f600783901c169050919050565b6000601f601683901c169050919050565b66b1a2bc2ec500003410156103e0576040517f08c379a00000000000000000000000000000000000000000000000000000000081526004018080602001828103825260188152602001807f53656e64206174206c6561737420302e3035206574686572000000000000000081525060200191505060405180910390fd5b6060600567ffffffffffffffff811180156103fa57600080fd5b506040519080825280602002602001820160405280156104295781602001602082028036833780820191505090505b50905060028160008151811061043b57fe5b60200260200101818152505060078160018151811061045657fe5b602002602001018181525050600c8160028151811061047157fe5b60200260200101818152505060118160038151811061048c57fe5b6020026020010181815250506016816004815181106104a757fe5b60200260200101818152505060006005905060008360028111156104c757fe5b90505b6000826104d5610337565b816104dc57fe5b0690506000600184600d016104ef610337565b816104f657fe5b0601905084828151811061050657fe5b602002602001015181901b8317925083806001900394505084848151811061052a57fe5b602002602001015185838151811061053e57fe5b6020026020010181815250505050600082116104ca576000803373ffffffffffffffffffffffffffffffffffffffff1673ffffffffffffffffffffffffffffffffffffffff16815260200190815260200160002081908060018154018082558091505060019003906000526020600020016000909190919091505550505050565b8060018190555050565b60606000803373ffffffffffffffffffffffffffffffffffffffff1673ffffffffffffffffffffffffffffffffffffffff16815260200190815260200160002080548060200260200160405190810160405280929190818152602001828054801561065357602002820191906000526020600020905b81548152602001906001019080831161063f575b5050505050905090565b6000601f601183901c169050919050565b6000601f600c83901c169050919050565b6000601f600283901c16905091905056fea26469706673582212203911c6e625c25cee7b34f429cb37ebdf291150dad150a454b9e5a22c5bcf025964736f6c63430007030033",
  "linkReferences": {},
  "deployedLinkReferences": {}
}